{
  "_format": "hh-sol-artifact-1",
  "contractName": "Enroll",
  "sourceName": "contracts/Enroll.sol",
  "abi": [
    {
      "inputs": [],
      "stateMutability": "nonpayable",
      "type": "constructor"
    },
    {
      "anonymous": false,
      "inputs": [
        {
          "indexed": false,
          "internalType": "bool",
          "name": "success",
          "type": "bool"
        }
      ],
      "name": "entered",
      "type": "event"
    },
    {
      "inputs": [],
      "name": "call2",
      "outputs": [
        {
          "internalType": "uint256",
          "name": "",
          "type": "uint256"
        }
      ],
      "stateMutability": "view",
      "type": "function"
    },
    {
      "inputs": [
        {
          "internalType": "address",
          "name": "user",
          "type": "address"
        },
        {
          "internalType": "uint256",
          "name": "sub",
          "type": "uint256"
        }
      ],
      "name": "select",
      "outputs": [],
      "stateMutability": "nonpayable",
      "type": "function"
    },
    {
      "inputs": [
        {
          "internalType": "uint256",
          "name": "sub",
          "type": "uint256"
        }
      ],
      "name": "show",
      "outputs": [
        {
          "internalType": "uint256",
          "name": "",
          "type": "uint256"
        }
      ],
      "stateMutability": "view",
      "type": "function"
    }
  ],
  "bytecode": "0x60806040526103e860055534801561001657600080fd5b50610729806100266000396000f3fe608060405234801561001057600080fd5b50600436106100415760003560e01c806315998874146100465780638b514ed714610064578063c21f7bbb14610094575b600080fd5b61004e6100b0565b60405161005b91906104d8565b60405180910390f35b61007e60048036038101906100799190610524565b6100ba565b60405161008b91906104d8565b60405180910390f35b6100ae60048036038101906100a991906105af565b610112565b005b6000600554905090565b600060018214156100cf57600154905061010d565b60028214156100e257600254905061010d565b60038214156100f557600354905061010d565b600482141561010857600454905061010d565b600a90505b919050565b60008060008473ffffffffffffffffffffffffffffffffffffffff1673ffffffffffffffffffffffffffffffffffffffff168152602001908152602001600020600083815260200190815260200160002054141561048257600181141561022f57600160008154809291906101869061061e565b919050555060016000808473ffffffffffffffffffffffffffffffffffffffff1673ffffffffffffffffffffffffffffffffffffffff168152602001908152602001600020600083815260200190815260200160002060008282546101eb9190610667565b925050819055507fcf5d7ac1305749176ee4e78b8a86e749c341938b6c9aa569285d194487e9a51a600160405161022291906106d8565b60405180910390a161047d565b60028114156102f4576002600081548092919061024b9061061e565b919050555060016000808473ffffffffffffffffffffffffffffffffffffffff1673ffffffffffffffffffffffffffffffffffffffff168152602001908152602001600020600083815260200190815260200160002060008282546102b09190610667565b925050819055507fcf5d7ac1305749176ee4e78b8a86e749c341938b6c9aa569285d194487e9a51a60016040516102e791906106d8565b60405180910390a161047c565b60038114156103b957600360008154809291906103109061061e565b919050555060016000808473ffffffffffffffffffffffffffffffffffffffff1673ffffffffffffffffffffffffffffffffffffffff168152602001908152602001600020600083815260200190815260200160002060008282546103759190610667565b925050819055507fcf5d7ac1305749176ee4e78b8a86e749c341938b6c9aa569285d194487e9a51a60016040516103ac91906106d8565b60405180910390a161047b565b600481141561047a57600460008154809291906103d59061061e565b919050555060016000808473ffffffffffffffffffffffffffffffffffffffff1673ffffffffffffffffffffffffffffffffffffffff1681526020019081526020016000206000838152602001908152602001600020600082825461043a9190610667565b925050819055507fcf5d7ac1305749176ee4e78b8a86e749c341938b6c9aa569285d194487e9a51a600160405161047191906106d8565b60405180910390a15b5b5b5b6104bb565b7fcf5d7ac1305749176ee4e78b8a86e749c341938b6c9aa569285d194487e9a51a60006040516104b291906106d8565b60405180910390a15b5050565b6000819050919050565b6104d2816104bf565b82525050565b60006020820190506104ed60008301846104c9565b92915050565b600080fd5b610501816104bf565b811461050c57600080fd5b50565b60008135905061051e816104f8565b92915050565b60006020828403121561053a576105396104f3565b5b60006105488482850161050f565b91505092915050565b600073ffffffffffffffffffffffffffffffffffffffff82169050919050565b600061057c82610551565b9050919050565b61058c81610571565b811461059757600080fd5b50565b6000813590506105a981610583565b92915050565b600080604083850312156105c6576105c56104f3565b5b60006105d48582860161059a565b92505060206105e58582860161050f565b9150509250929050565b7f4e487b7100000000000000000000000000000000000000000000000000000000600052601160045260246000fd5b6000610629826104bf565b91507fffffffffffffffffffffffffffffffffffffffffffffffffffffffffffffffff82141561065c5761065b6105ef565b5b600182019050919050565b6000610672826104bf565b915061067d836104bf565b9250827fffffffffffffffffffffffffffffffffffffffffffffffffffffffffffffffff038211156106b2576106b16105ef565b5b828201905092915050565b60008115159050919050565b6106d2816106bd565b82525050565b60006020820190506106ed60008301846106c9565b9291505056fea2646970667358221220c22da6d813343169a757aea6c6eeb899e9eed66c9dfa3c852e76e6cfc6b46c7d64736f6c63430008090033",
  "linkReferences": {},
  "deployedLinkReferences": {}
}