{
  "_format": "hh-sol-artifact-1",
  "contractName": "Enroll",
  "sourceName": "contracts/Enroll.sol",
  "abi": [
    {
      "inputs": [],
      "stateMutability": "nonpayable",
      "type": "constructor"
    },
    {
      "inputs": [],
      "name": "call2",
      "outputs": [
        {
          "internalType": "uint256",
          "name": "",
          "type": "uint256"
        }
      ],
      "stateMutability": "view",
      "type": "function"
    },
    {
      "inputs": [
        {
          "internalType": "address",
          "name": "user",
          "type": "address"
        },
        {
          "internalType": "uint256",
          "name": "sub",
          "type": "uint256"
        }
      ],
      "name": "select",
      "outputs": [],
      "stateMutability": "nonpayable",
      "type": "function"
    },
    {
      "inputs": [
        {
          "internalType": "uint256",
          "name": "sub",
          "type": "uint256"
        }
      ],
      "name": "show",
      "outputs": [
        {
          "internalType": "uint256",
          "name": "",
          "type": "uint256"
        }
      ],
      "stateMutability": "view",
      "type": "function"
    }
  ],
  "bytecode": "0x60806040526103e860055534801561001657600080fd5b50610577806100266000396000f3fe608060405234801561001057600080fd5b50600436106100415760003560e01c806315998874146100465780638b514ed714610064578063c21f7bbb14610094575b600080fd5b61004e6100b0565b60405161005b919061035c565b60405180910390f35b61007e600480360381019061007991906103a8565b6100ba565b60405161008b919061035c565b60405180910390f35b6100ae60048036038101906100a99190610433565b610112565b005b6000600554905090565b600060018214156100cf57600154905061010d565b60028214156100e257600254905061010d565b60038214156100f557600354905061010d565b600482141561010857600454905061010d565b600a90505b919050565b60008060008473ffffffffffffffffffffffffffffffffffffffff1673ffffffffffffffffffffffffffffffffffffffff16815260200190815260200160002054141561033f5760018114156101d55760016000815480929190610175906104a2565b919050555060016000808473ffffffffffffffffffffffffffffffffffffffff1673ffffffffffffffffffffffffffffffffffffffff16815260200190815260200160002060008282546101c991906104eb565b9250508190555061033e565b600281141561025157600260008154809291906101f1906104a2565b919050555060016000808473ffffffffffffffffffffffffffffffffffffffff1673ffffffffffffffffffffffffffffffffffffffff168152602001908152602001600020600082825461024591906104eb565b9250508190555061033d565b60038114156102cd576003600081548092919061026d906104a2565b919050555060016000808473ffffffffffffffffffffffffffffffffffffffff1673ffffffffffffffffffffffffffffffffffffffff16815260200190815260200160002060008282546102c191906104eb565b9250508190555061033c565b600460008154809291906102e0906104a2565b919050555060016000808473ffffffffffffffffffffffffffffffffffffffff1673ffffffffffffffffffffffffffffffffffffffff168152602001908152602001600020600082825461033491906104eb565b925050819055505b5b5b5b5050565b6000819050919050565b61035681610343565b82525050565b6000602082019050610371600083018461034d565b92915050565b600080fd5b61038581610343565b811461039057600080fd5b50565b6000813590506103a28161037c565b92915050565b6000602082840312156103be576103bd610377565b5b60006103cc84828501610393565b91505092915050565b600073ffffffffffffffffffffffffffffffffffffffff82169050919050565b6000610400826103d5565b9050919050565b610410816103f5565b811461041b57600080fd5b50565b60008135905061042d81610407565b92915050565b6000806040838503121561044a57610449610377565b5b60006104588582860161041e565b925050602061046985828601610393565b9150509250929050565b7f4e487b7100000000000000000000000000000000000000000000000000000000600052601160045260246000fd5b60006104ad82610343565b91507fffffffffffffffffffffffffffffffffffffffffffffffffffffffffffffffff8214156104e0576104df610473565b5b600182019050919050565b60006104f682610343565b915061050183610343565b9250827fffffffffffffffffffffffffffffffffffffffffffffffffffffffffffffffff0382111561053657610535610473565b5b82820190509291505056fea2646970667358221220609070f2dbba2566e8f85c38923d0dee3e5505bef2bfee17603b0e6d179b0e7c64736f6c63430008090033",
  "linkReferences": {},
  "deployedLinkReferences": {}
}